{"project/contracts/PQVerifier.sol":{"PQVerifier":{"abi":[{"inputs":[],"name":"InvalidPublicKey","type":"error"},{"inputs":[],"name":"InvalidSignatureLength","type":"error"},{"inputs":[],"name":"SignatureVerificationFailed","type":"error"},{"anonymous":false,"inputs":[{"indexed":true,"internalType":"address","name":"validator","type":"address"},{"indexed":true,"internalType":"bytes32","name":"messageHash","type":"bytes32"},{"indexed":false,"internalType":"bool","name":"verified","type":"bool"},{"indexed":false,"internalType":"uint256","name":"gasUsed","type":"uint256"}],"name":"PQSignatureVerified","type":"event"},{"inputs":[],"name":"DILITHIUM_MODE","outputs":[{"internalType":"uint256","name":"","type":"uint256"}],"stateMutability":"view","type":"function"},{"inputs":[],"name":"KYBER_SECURITY_LEVEL","outputs":[{"internalType":"uint256","name":"","type":"uint256"}],"stateMutability":"view","type":"function"},{"inputs":[{"internalType":"address","name":"validator","type":"address"}],"name":"clearCache","outputs":[],"stateMutability":"nonpayable","type":"function"},{"inputs":[{"internalType":"uint256","name":"signatureLength","type":"uint256"}],"name":"estimateVerificationGas","outputs":[{"internalType":"uint256","name":"estimatedGas","type":"uint256"}],"stateMutability":"pure","type":"function"},{"inputs":[{"internalType":"address","name":"validator","type":"address"}],"name":"getVerificationCount","outputs":[{"internalType":"uint256","name":"count","type":"uint256"}],"stateMutability":"view","type":"function"},{"inputs":[{"internalType":"address","name":"","type":"address"}],"name":"verificationCounts","outputs":[{"internalType":"uint256","name":"","type":"uint256"}],"stateMutability":"view","type":"function"},{"inputs":[{"internalType":"bytes32","name":"","type":"bytes32"}],"name":"verifiedSignatures","outputs":[{"internalType":"bool","name":"","type":"bool"}],"stateMutability":"view","type":"function"},{"inputs":[{"internalType":"bytes[]","name":"publicKeys","type":"bytes[]"},{"internalType":"bytes[]","name":"signatures","type":"bytes[]"},{"internalType":"bytes[]","name":"messages","type":"bytes[]"}],"name":"verifyBatch","outputs":[{"internalType":"bool[]","name":"results","type":"bool[]"}],"stateMutability":"nonpayable","type":"function"},{"inputs":[{"internalType":"bytes","name":"publicKey","type":"bytes"},{"internalType":"bytes","name":"signature","type":"bytes"},{"internalType":"bytes","name":"message","type":"bytes"}],"name":"verifyPQ","outputs":[{"internalType":"bool","name":"verified","type":"bool"}],"stateMutability":"nonpayable","type":"function"}],"evm":{"bytecode":{"linkReferences":{},"object":"6080604052348015600e575f5ffd5b506109df8061001c5f395ff3fe608060405234801561000f575f5ffd5b5060043610610090575f3560e01c8063c10b1d1a11610063578063c10b1d1a146100ea578063c316c57a14610115578063ccaaac441461013e578063e30985f914610151578063f017c5a614610173575f5ffd5b8063107f91a11461009457806325b4ca6c146100bd57806363f88c2e146100ea57806383d16440146100f2575b5f5ffd5b6100a76100a2366004610728565b61019b565b6040516100b491906107b6565b60405180910390f35b6100dc6100cb3660046107fa565b60016020525f908152604090205481565b6040519081526020016100b4565b6100dc600281565b610105610100366004610820565b6102d2565b60405190151581526020016100b4565b61013c6101233660046107fa565b6001600160a01b03165f90815260016020526040812055565b005b6100dc61014c3660046108a4565b610482565b61010561015f3660046108a4565b5f6020819052908152604090205460ff1681565b6100dc6101813660046107fa565b6001600160a01b03165f9081526001602052604090205490565b6060825184511480156101af575081518351145b6101f85760405162461bcd60e51b8152602060048201526015602482015274082e4e4c2f240d8cadccee8d040dad2e6dac2e8c6d605b1b60448201526064015b60405180910390fd5b835167ffffffffffffffff811115610212576102126105d3565b60405190808252806020026020018201604052801561023b578160200160208202803683370190505b5090505f5b84518110156102c95761029f85828151811061025e5761025e6108bb565b6020026020010151858381518110610278576102786108bb565b6020026020010151858481518110610292576102926108bb565b60200260200101516102d2565b8282815181106102b1576102b16108bb565b91151560209283029190910190910152600101610240565b505b9392505050565b5f5f5a905084515f036102f85760405163145a1fdd60e31b815260040160405180910390fd5b6107d08451101561031c57604051634be6321b60e01b815260040160405180910390fd5b5f8360405160200161032e91906108e6565b6040516020818303038152906040528051906020012090505f86868360405160200161035c939291906108f1565b60408051601f1981840301815291815281516020928301205f8181529283905291205490915060ff16156103e05781337f1fca4fd46ec71dcffa85709448c566f26b9352dd1d8dc004e35cb66c48a5342f60015a6103ba9088610927565b60408051921515835260208301919091520160405180910390a3600193505050506102cb565b6103eb8787846104b5565b93508315610429575f81815260208181526040808320805460ff19166001908117909155338452909152812080549161042383610940565b91905055505b5f5a6104359085610927565b60408051871515815260208101839052919250849133917f1fca4fd46ec71dcffa85709448c566f26b9352dd1d8dc004e35cb66c48a5342f910160405180910390a3505050509392505050565b5f6152088161049284600a610958565b905061c350806104a2838561096f565b6104ac919061096f565b95945050505050565b81515f906107d08110156105015760405162461bcd60e51b815260206004820152601360248201527214da59db985d1d5c99481d1bdbc81cda1bdc9d606a1b60448201526064016101ef565b845161052081101561054c5760405162461bcd60e51b8152602060048201526014602482015273141d589b1a58c81ad95e481d1bdbc81cda1bdc9d60621b60448201526064016101ef565b5f868686604051602001610562939291906108f1565b60405160208183030381529060405280519060200120905061058687878784610591565b979650505050505050565b5f5f85858563123456786040516020016105ae9493929190610982565b60408051601f1981840301815291905280516020909101208314915050949350505050565b634e487b7160e01b5f52604160045260245ffd5b604051601f8201601f1916810167ffffffffffffffff81118282101715610610576106106105d3565b604052919050565b5f82601f830112610627575f5ffd5b813567ffffffffffffffff811115610641576106416105d3565b610654601f8201601f19166020016105e7565b818152846020838601011115610668575f5ffd5b816020850160208301375f918101602001919091529392505050565b5f82601f830112610693575f5ffd5b813567ffffffffffffffff8111156106ad576106ad6105d3565b8060051b6106bd602082016105e7565b918252602081850181019290810190868411156106d8575f5ffd5b6020860192505b8383101561071e57823567ffffffffffffffff8111156106fd575f5ffd5b61070c886020838a0101610618565b835250602092830192909101906106df565b9695505050505050565b5f5f5f6060848603121561073a575f5ffd5b833567ffffffffffffffff811115610750575f5ffd5b61075c86828701610684565b935050602084013567ffffffffffffffff811115610778575f5ffd5b61078486828701610684565b925050604084013567ffffffffffffffff8111156107a0575f5ffd5b6107ac86828701610684565b9150509250925092565b602080825282518282018190525f918401906040840190835b818110156107ef57835115158352602093840193909201916001016107cf565b509095945050505050565b5f6020828403121561080a575f5ffd5b81356001600160a01b03811681146102cb575f5ffd5b5f5f5f60608486031215610832575f5ffd5b833567ffffffffffffffff811115610848575f5ffd5b61085486828701610618565b935050602084013567ffffffffffffffff811115610870575f5ffd5b61087c86828701610618565b925050604084013567ffffffffffffffff811115610898575f5ffd5b6107ac86828701610618565b5f602082840312156108b4575f5ffd5b5035919050565b634e487b7160e01b5f52603260045260245ffd5b5f81518060208401855e5f93019283525090919050565b5f6102cb82846108cf565b5f6109056108ff83876108cf565b856108cf565b928352505060200192915050565b634e487b7160e01b5f52601160045260245ffd5b8181038181111561093a5761093a610913565b92915050565b5f6001820161095157610951610913565b5060010190565b808202811582820484141761093a5761093a610913565b8082018082111561093a5761093a610913565b5f61099661099083886108cf565b866108cf565b938452505060208201526040019291505056fea2646970667358221220ebc45afb7807a888babe120f6e793899e64e9ffebdbedb380ff9ad3bf2c4208d64736f6c634300081c0033","opcodes":"PUSH1 0x80 PUSH1 0x40 MSTORE CALLVALUE DUP1 ISZERO PUSH1 0xE JUMPI PUSH0 PUSH0 REVERT JUMPDEST POP PUSH2 0x9DF DUP1 PUSH2 0x1C PUSH0 CODECOPY PUSH0 RETURN INVALID PUSH1 0x80 PUSH1 0x40 MSTORE CALLVALUE DUP1 ISZERO PUSH2 0xF JUMPI PUSH0 PUSH0 REVERT JUMPDEST POP PUSH1 0x4 CALLDATASIZE LT PUSH2 0x90 JUMPI PUSH0 CALLDATALOAD PUSH1 0xE0 SHR DUP1 PUSH4 0xC10B1D1A GT PUSH2 0x63 JUMPI DUP1 PUSH4 0xC10B1D1A EQ PUSH2 0xEA JUMPI DUP1 PUSH4 0xC316C57A EQ PUSH2 0x115 JUMPI DUP1 PUSH4 0xCCAAAC44 EQ PUSH2 0x13E JUMPI DUP1 PUSH4 0xE30985F9 EQ PUSH2 0x151 JUMPI DUP1 PUSH4 0xF017C5A6 EQ PUSH2 0x173 JUMPI PUSH0 PUSH0 REVERT JUMPDEST DUP1 PUSH4 0x107F91A1 EQ PUSH2 0x94 JUMPI DUP1 PUSH4 0x25B4CA6C EQ PUSH2 0xBD JUMPI DUP1 PUSH4 0x63F88C2E EQ PUSH2 0xEA JUMPI DUP1 PUSH4 0x83D16440 EQ PUSH2 0xF2 JUMPI JUMPDEST PUSH0 PUSH0 REVERT JUMPDEST PUSH2 0xA7 PUSH2 0xA2 CALLDATASIZE PUSH1 0x4 PUSH2 0x728 JUMP JUMPDEST PUSH2 0x19B JUMP JUMPDEST PUSH1 0x40 MLOAD PUSH2 0xB4 SWAP2 SWAP1 PUSH2 0x7B6 JUMP JUMPDEST PUSH1 0x40 MLOAD DUP1 SWAP2 SUB SWAP1 RETURN JUMPDEST PUSH2 0xDC PUSH2 0xCB CALLDATASIZE PUSH1 0x4 PUSH2 0x7FA JUMP JUMPDEST PUSH1 0x1 PUSH1 0x20 MSTORE PUSH0 SWAP1 DUP2 MSTORE PUSH1 0x40 SWAP1 KECCAK256 SLOAD DUP2 JUMP JUMPDEST PUSH1 0x40 MLOAD SWAP1 DUP2 MSTORE PUSH1 0x20 ADD PUSH2 0xB4 JUMP JUMPDEST PUSH2 0xDC PUSH1 0x2 DUP2 JUMP JUMPDEST PUSH2 0x105 PUSH2 0x100 CALLDATASIZE PUSH1 0x4 PUSH2 0x820 JUMP JUMPDEST PUSH2 0x2D2 JUMP JUMPDEST PUSH1 0x40 MLOAD SWAP1 ISZERO ISZERO DUP2 MSTORE PUSH1 0x20 ADD PUSH2 0xB4 JUMP JUMPDEST PUSH2 0x13C PUSH2 0x123 CALLDATASIZE PUSH1 0x4 PUSH2 0x7FA JUMP JUMPDEST PUSH1 0x1 PUSH1 0x1 PUSH1 0xA0 SHL SUB AND PUSH0 SWAP1 DUP2 MSTORE PUSH1 0x1 PUSH1 0x20 MSTORE PUSH1 0x40 DUP2 KECCAK256 SSTORE JUMP JUMPDEST STOP JUMPDEST PUSH2 0xDC PUSH2 0x14C CALLDATASIZE PUSH1 0x4 PUSH2 0x8A4 JUMP JUMPDEST PUSH2 0x482 JUMP JUMPDEST PUSH2 0x105 PUSH2 0x15F CALLDATASIZE PUSH1 0x4 PUSH2 0x8A4 JUMP JUMPDEST PUSH0 PUSH1 0x20 DUP2 SWAP1 MSTORE SWAP1 DUP2 MSTORE PUSH1 0x40 SWAP1 KECCAK256 SLOAD PUSH1 0xFF AND DUP2 JUMP JUMPDEST PUSH2 0xDC PUSH2 0x181 CALLDATASIZE PUSH1 0x4 PUSH2 0x7FA JUMP JUMPDEST PUSH1 0x1 PUSH1 0x1 PUSH1 0xA0 SHL SUB AND PUSH0 SWAP1 DUP2 MSTORE PUSH1 0x1 PUSH1 0x20 MSTORE PUSH1 0x40 SWAP1 KECCAK256 SLOAD SWAP1 JUMP JUMPDEST PUSH1 0x60 DUP3 MLOAD DUP5 MLOAD EQ DUP1 ISZERO PUSH2 0x1AF JUMPI POP DUP2 MLOAD DUP4 MLOAD EQ JUMPDEST PUSH2 0x1F8 JUMPI PUSH1 0x40 MLOAD PUSH3 0x461BCD PUSH1 0xE5 SHL DUP2 MSTORE PUSH1 0x20 PUSH1 0x4 DUP3 ADD MSTORE PUSH1 0x15 PUSH1 0x24 DUP3 ADD MSTORE PUSH21 0x82E4E4C2F240D8CADCCEE8D040DAD2E6DAC2E8C6D PUSH1 0x5B SHL PUSH1 0x44 DUP3 ADD MSTORE PUSH1 0x64 ADD JUMPDEST PUSH1 0x40 MLOAD DUP1 SWAP2 SUB SWAP1 REVERT JUMPDEST DUP4 MLOAD PUSH8 0xFFFFFFFFFFFFFFFF DUP2 GT ISZERO PUSH2 0x212 JUMPI PUSH2 0x212 PUSH2 0x5D3 JUMP JUMPDEST PUSH1 0x40 MLOAD SWAP1 DUP1 DUP3 MSTORE DUP1 PUSH1 0x20 MUL PUSH1 0x20 ADD DUP3 ADD PUSH1 0x40 MSTORE DUP1 ISZERO PUSH2 0x23B JUMPI DUP2 PUSH1 0x20 ADD PUSH1 0x20 DUP3 MUL DUP1 CALLDATASIZE DUP4 CALLDATACOPY ADD SWAP1 POP JUMPDEST POP SWAP1 POP PUSH0 JUMPDEST DUP5 MLOAD DUP2 LT ISZERO PUSH2 0x2C9 JUMPI PUSH2 0x29F DUP6 DUP3 DUP2 MLOAD DUP2 LT PUSH2 0x25E JUMPI PUSH2 0x25E PUSH2 0x8BB JUMP JUMPDEST PUSH1 0x20 MUL PUSH1 0x20 ADD ADD MLOAD DUP6 DUP4 DUP2 MLOAD DUP2 LT PUSH2 0x278 JUMPI PUSH2 0x278 PUSH2 0x8BB JUMP JUMPDEST PUSH1 0x20 MUL PUSH1 0x20 ADD ADD MLOAD DUP6 DUP5 DUP2 MLOAD DUP2 LT PUSH2 0x292 JUMPI PUSH2 0x292 PUSH2 0x8BB JUMP JUMPDEST PUSH1 0x20 MUL PUSH1 0x20 ADD ADD MLOAD PUSH2 0x2D2 JUMP JUMPDEST DUP3 DUP3 DUP2 MLOAD DUP2 LT PUSH2 0x2B1 JUMPI PUSH2 0x2B1 PUSH2 0x8BB JUMP JUMPDEST SWAP2 ISZERO ISZERO PUSH1 0x20 SWAP3 DUP4 MUL SWAP2 SWAP1 SWAP2 ADD SWAP1 SWAP2 ADD MSTORE PUSH1 0x1 ADD PUSH2 0x240 JUMP JUMPDEST POP JUMPDEST SWAP4 SWAP3 POP POP POP JUMP JUMPDEST PUSH0 PUSH0 GAS SWAP1 POP DUP5 MLOAD PUSH0 SUB PUSH2 0x2F8 JUMPI PUSH1 0x40 MLOAD PUSH4 0x145A1FDD PUSH1 0xE3 SHL DUP2 MSTORE PUSH1 0x4 ADD PUSH1 0x40 MLOAD DUP1 SWAP2 SUB SWAP1 REVERT JUMPDEST PUSH2 0x7D0 DUP5 MLOAD LT ISZERO PUSH2 0x31C JUMPI PUSH1 0x40 MLOAD PUSH4 0x4BE6321B PUSH1 0xE0 SHL DUP2 MSTORE PUSH1 0x4 ADD PUSH1 0x40 MLOAD DUP1 SWAP2 SUB SWAP1 REVERT JUMPDEST PUSH0 DUP4 PUSH1 0x40 MLOAD PUSH1 0x20 ADD PUSH2 0x32E SWAP2 SWAP1 PUSH2 0x8E6 JUMP JUMPDEST PUSH1 0x40 MLOAD PUSH1 0x20 DUP2 DUP4 SUB SUB DUP2 MSTORE SWAP1 PUSH1 0x40 MSTORE DUP1 MLOAD SWAP1 PUSH1 0x20 ADD KECCAK256 SWAP1 POP PUSH0 DUP7 DUP7 DUP4 PUSH1 0x40 MLOAD PUSH1 0x20 ADD PUSH2 0x35C SWAP4 SWAP3 SWAP2 SWAP1 PUSH2 0x8F1 JUMP JUMPDEST PUSH1 0x40 DUP1 MLOAD PUSH1 0x1F NOT DUP2 DUP5 SUB ADD DUP2 MSTORE SWAP2 DUP2 MSTORE DUP2 MLOAD PUSH1 0x20 SWAP3 DUP4 ADD KECCAK256 PUSH0 DUP2 DUP2 MSTORE SWAP3 DUP4 SWAP1 MSTORE SWAP2 KECCAK256 SLOAD SWAP1 SWAP2 POP PUSH1 0xFF AND ISZERO PUSH2 0x3E0 JUMPI DUP2 CALLER PUSH32 0x1FCA4FD46EC71DCFFA85709448C566F26B9352DD1D8DC004E35CB66C48A5342F PUSH1 0x1 GAS PUSH2 0x3BA SWAP1 DUP9 PUSH2 0x927 JUMP JUMPDEST PUSH1 0x40 DUP1 MLOAD SWAP3 ISZERO ISZERO DUP4 MSTORE PUSH1 0x20 DUP4 ADD SWAP2 SWAP1 SWAP2 MSTORE ADD PUSH1 0x40 MLOAD DUP1 SWAP2 SUB SWAP1 LOG3 PUSH1 0x1 SWAP4 POP POP POP POP PUSH2 0x2CB JUMP JUMPDEST PUSH2 0x3EB DUP8 DUP8 DUP5 PUSH2 0x4B5 JUMP JUMPDEST SWAP4 POP DUP4 ISZERO PUSH2 0x429 JUMPI PUSH0 DUP2 DUP2 MSTORE PUSH1 0x20 DUP2 DUP2 MSTORE PUSH1 0x40 DUP1 DUP4 KECCAK256 DUP1 SLOAD PUSH1 0xFF NOT AND PUSH1 0x1 SWAP1 DUP2 OR SWAP1 SWAP2 SSTORE CALLER DUP5 MSTORE SWAP1 SWAP2 MSTORE DUP2 KECCAK256 DUP1 SLOAD SWAP2 PUSH2 0x423 DUP4 PUSH2 0x940 JUMP JUMPDEST SWAP2 SWAP1 POP SSTORE POP JUMPDEST PUSH0 GAS PUSH2 0x435 SWAP1 DUP6 PUSH2 0x927 JUMP JUMPDEST PUSH1 0x40 DUP1 MLOAD DUP8 ISZERO ISZERO DUP2 MSTORE PUSH1 0x20 DUP2 ADD DUP4 SWAP1 MSTORE SWAP2 SWAP3 POP DUP5 SWAP2 CALLER SWAP2 PUSH32 0x1FCA4FD46EC71DCFFA85709448C566F26B9352DD1D8DC004E35CB66C48A5342F SWAP2 ADD PUSH1 0x40 MLOAD DUP1 SWAP2 SUB SWAP1 LOG3 POP POP POP POP SWAP4 SWAP3 POP POP POP JUMP JUMPDEST PUSH0 PUSH2 0x5208 DUP2 PUSH2 0x492 DUP5 PUSH1 0xA PUSH2 0x958 JUMP JUMPDEST SWAP1 POP PUSH2 0xC350 DUP1 PUSH2 0x4A2 DUP4 DUP6 PUSH2 0x96F JUMP JUMPDEST PUSH2 0x4AC SWAP2 SWAP1 PUSH2 0x96F JUMP JUMPDEST SWAP6 SWAP5 POP POP POP POP POP JUMP JUMPDEST DUP2 MLOAD PUSH0 SWAP1 PUSH2 0x7D0 DUP2 LT ISZERO PUSH2 0x501 JUMPI PUSH1 0x40 MLOAD PUSH3 0x461BCD PUSH1 0xE5 SHL DUP2 MSTORE PUSH1 0x20 PUSH1 0x4 DUP3 ADD MSTORE PUSH1 0x13 PUSH1 0x24 DUP3 ADD MSTORE PUSH19 0x14DA59DB985D1D5C99481D1BDBC81CDA1BDC9D PUSH1 0x6A SHL PUSH1 0x44 DUP3 ADD MSTORE PUSH1 0x64 ADD PUSH2 0x1EF JUMP JUMPDEST DUP5 MLOAD PUSH2 0x520 DUP2 LT ISZERO PUSH2 0x54C JUMPI PUSH1 0x40 MLOAD PUSH3 0x461BCD PUSH1 0xE5 SHL DUP2 MSTORE PUSH1 0x20 PUSH1 0x4 DUP3 ADD MSTORE PUSH1 0x14 PUSH1 0x24 DUP3 ADD MSTORE PUSH20 0x141D589B1A58C81AD95E481D1BDBC81CDA1BDC9D PUSH1 0x62 SHL PUSH1 0x44 DUP3 ADD MSTORE PUSH1 0x64 ADD PUSH2 0x1EF JUMP JUMPDEST PUSH0 DUP7 DUP7 DUP7 PUSH1 0x40 MLOAD PUSH1 0x20 ADD PUSH2 0x562 SWAP4 SWAP3 SWAP2 SWAP1 PUSH2 0x8F1 JUMP JUMPDEST PUSH1 0x40 MLOAD PUSH1 0x20 DUP2 DUP4 SUB SUB DUP2 MSTORE SWAP1 PUSH1 0x40 MSTORE DUP1 MLOAD SWAP1 PUSH1 0x20 ADD KECCAK256 SWAP1 POP PUSH2 0x586 DUP8 DUP8 DUP8 DUP5 PUSH2 0x591 JUMP JUMPDEST SWAP8 SWAP7 POP POP POP POP POP POP POP JUMP JUMPDEST PUSH0 PUSH0 DUP6 DUP6 DUP6 PUSH4 0x12345678 PUSH1 0x40 MLOAD PUSH1 0x20 ADD PUSH2 0x5AE SWAP5 SWAP4 SWAP3 SWAP2 SWAP1 PUSH2 0x982 JUMP JUMPDEST PUSH1 0x40 DUP1 MLOAD PUSH1 0x1F NOT DUP2 DUP5 SUB ADD DUP2 MSTORE SWAP2 SWAP1 MSTORE DUP1 MLOAD PUSH1 0x20 SWAP1 SWAP2 ADD KECCAK256 DUP4 EQ SWAP2 POP POP SWAP5 SWAP4 POP POP POP POP JUMP JUMPDEST PUSH4 0x4E487B71 PUSH1 0xE0 SHL PUSH0 MSTORE PUSH1 0x41 PUSH1 0x4 MSTORE PUSH1 0x24 PUSH0 REVERT JUMPDEST PUSH1 0x40 MLOAD PUSH1 0x1F DUP3 ADD PUSH1 0x1F NOT AND DUP2 ADD PUSH8 0xFFFFFFFFFFFFFFFF DUP2 GT DUP3 DUP3 LT OR ISZERO PUSH2 0x610 JUMPI PUSH2 0x610 PUSH2 0x5D3 JUMP JUMPDEST PUSH1 0x40 MSTORE SWAP2 SWAP1 POP JUMP JUMPDEST PUSH0 DUP3 PUSH1 0x1F DUP4 ADD SLT PUSH2 0x627 JUMPI PUSH0 PUSH0 REVERT JUMPDEST DUP2 CALLDATALOAD PUSH8 0xFFFFFFFFFFFFFFFF DUP2 GT ISZERO PUSH2 0x641 JUMPI PUSH2 0x641 PUSH2 0x5D3 JUMP JUMPDEST PUSH2 0x654 PUSH1 0x1F DUP3 ADD PUSH1 0x1F NOT AND PUSH1 0x20 ADD PUSH2 0x5E7 JUMP JUMPDEST DUP2 DUP2 MSTORE DUP5 PUSH1 0x20 DUP4 DUP7 ADD ADD GT ISZERO PUSH2 0x668 JUMPI PUSH0 PUSH0 REVERT JUMPDEST DUP2 PUSH1 0x20 DUP6 ADD PUSH1 0x20 DUP4 ADD CALLDATACOPY PUSH0 SWAP2 DUP2 ADD PUSH1 0x20 ADD SWAP2 SWAP1 SWAP2 MSTORE SWAP4 SWAP3 POP POP POP JUMP JUMPDEST PUSH0 DUP3 PUSH1 0x1F DUP4 ADD SLT PUSH2 0x693 JUMPI PUSH0 PUSH0 REVERT JUMPDEST DUP2 CALLDATALOAD PUSH8 0xFFFFFFFFFFFFFFFF DUP2 GT ISZERO PUSH2 0x6AD JUMPI PUSH2 0x6AD PUSH2 0x5D3 JUMP JUMPDEST DUP1 PUSH1 0x5 SHL PUSH2 0x6BD PUSH1 0x20 DUP3 ADD PUSH2 0x5E7 JUMP JUMPDEST SWAP2 DUP3 MSTORE PUSH1 0x20 DUP2 DUP6 ADD DUP2 ADD SWAP3 SWAP1 DUP2 ADD SWAP1 DUP7 DUP5 GT ISZERO PUSH2 0x6D8 JUMPI PUSH0 PUSH0 REVERT JUMPDEST PUSH1 0x20 DUP7 ADD SWAP3 POP JUMPDEST DUP4 DUP4 LT ISZERO PUSH2 0x71E JUMPI DUP3 CALLDATALOAD PUSH8 0xFFFFFFFFFFFFFFFF DUP2 GT ISZERO PUSH2 0x6FD JUMPI PUSH0 PUSH0 REVERT JUMPDEST PUSH2 0x70C DUP9 PUSH1 0x20 DUP4 DUP11 ADD ADD PUSH2 0x618 JUMP JUMPDEST DUP4 MSTORE POP PUSH1 0x20 SWAP3 DUP4 ADD SWAP3 SWAP1 SWAP2 ADD SWAP1 PUSH2 0x6DF JUMP JUMPDEST SWAP7 SWAP6 POP POP POP POP POP POP JUMP JUMPDEST PUSH0 PUSH0 PUSH0 PUSH1 0x60 DUP5 DUP7 SUB SLT ISZERO PUSH2 0x73A JUMPI PUSH0 PUSH0 REVERT JUMPDEST DUP4 CALLDATALOAD PUSH8 0xFFFFFFFFFFFFFFFF DUP2 GT ISZERO PUSH2 0x750 JUMPI PUSH0 PUSH0 REVERT JUMPDEST PUSH2 0x75C DUP7 DUP3 DUP8 ADD PUSH2 0x684 JUMP JUMPDEST SWAP4 POP POP PUSH1 0x20 DUP5 ADD CALLDATALOAD PUSH8 0xFFFFFFFFFFFFFFFF DUP2 GT ISZERO PUSH2 0x778 JUMPI PUSH0 PUSH0 REVERT JUMPDEST PUSH2 0x784 DUP7 DUP3 DUP8 ADD PUSH2 0x684 JUMP JUMPDEST SWAP3 POP POP PUSH1 0x40 DUP5 ADD CALLDATALOAD PUSH8 0xFFFFFFFFFFFFFFFF DUP2 GT ISZERO PUSH2 0x7A0 JUMPI PUSH0 PUSH0 REVERT JUMPDEST PUSH2 0x7AC DUP7 DUP3 DUP8 ADD PUSH2 0x684 JUMP JUMPDEST SWAP2 POP POP SWAP3 POP SWAP3 POP SWAP3 JUMP JUMPDEST PUSH1 0x20 DUP1 DUP3 MSTORE DUP3 MLOAD DUP3 DUP3 ADD DUP2 SWAP1 MSTORE PUSH0 SWAP2 DUP5 ADD SWAP1 PUSH1 0x40 DUP5 ADD SWAP1 DUP4 JUMPDEST DUP2 DUP2 LT ISZERO PUSH2 0x7EF JUMPI DUP4 MLOAD ISZERO ISZERO DUP4 MSTORE PUSH1 0x20 SWAP4 DUP5 ADD SWAP4 SWAP1 SWAP3 ADD SWAP2 PUSH1 0x1 ADD PUSH2 0x7CF JUMP JUMPDEST POP SWAP1 SWAP6 SWAP5 POP POP POP POP POP JUMP JUMPDEST PUSH0 PUSH1 0x20 DUP3 DUP5 SUB SLT ISZERO PUSH2 0x80A JUMPI PUSH0 PUSH0 REVERT JUMPDEST DUP2 CALLDATALOAD PUSH1 0x1 PUSH1 0x1 PUSH1 0xA0 SHL SUB DUP2 AND DUP2 EQ PUSH2 0x2CB JUMPI PUSH0 PUSH0 REVERT JUMPDEST PUSH0 PUSH0 PUSH0 PUSH1 0x60 DUP5 DUP7 SUB SLT ISZERO PUSH2 0x832 JUMPI PUSH0 PUSH0 REVERT JUMPDEST DUP4 CALLDATALOAD PUSH8 0xFFFFFFFFFFFFFFFF DUP2 GT ISZERO PUSH2 0x848 JUMPI PUSH0 PUSH0 REVERT JUMPDEST PUSH2 0x854 DUP7 DUP3 DUP8 ADD PUSH2 0x618 JUMP JUMPDEST SWAP4 POP POP PUSH1 0x20 DUP5 ADD CALLDATALOAD PUSH8 0xFFFFFFFFFFFFFFFF DUP2 GT ISZERO PUSH2 0x870 JUMPI PUSH0 PUSH0 REVERT JUMPDEST PUSH2 0x87C DUP7 DUP3 DUP8 ADD PUSH2 0x618 JUMP JUMPDEST SWAP3 POP POP PUSH1 0x40 DUP5 ADD CALLDATALOAD PUSH8 0xFFFFFFFFFFFFFFFF DUP2 GT ISZERO PUSH2 0x898 JUMPI PUSH0 PUSH0 REVERT JUMPDEST PUSH2 0x7AC DUP7 DUP3 DUP8 ADD PUSH2 0x618 JUMP JUMPDEST PUSH0 PUSH1 0x20 DUP3 DUP5 SUB SLT ISZERO PUSH2 0x8B4 JUMPI PUSH0 PUSH0 REVERT JUMPDEST POP CALLDATALOAD SWAP2 SWAP1 POP JUMP JUMPDEST PUSH4 0x4E487B71 PUSH1 0xE0 SHL PUSH0 MSTORE PUSH1 0x32 PUSH1 0x4 MSTORE PUSH1 0x24 PUSH0 REVERT JUMPDEST PUSH0 DUP2 MLOAD DUP1 PUSH1 0x20 DUP5 ADD DUP6 MCOPY PUSH0 SWAP4 ADD SWAP3 DUP4 MSTORE POP SWAP1 SWAP2 SWAP1 POP JUMP JUMPDEST PUSH0 PUSH2 0x2CB DUP3 DUP5 PUSH2 0x8CF JUMP JUMPDEST PUSH0 PUSH2 0x905 PUSH2 0x8FF DUP4 DUP8 PUSH2 0x8CF JUMP JUMPDEST DUP6 PUSH2 0x8CF JUMP JUMPDEST SWAP3 DUP4 MSTORE POP POP PUSH1 0x20 ADD SWAP3 SWAP2 POP POP JUMP JUMPDEST PUSH4 0x4E487B71 PUSH1 0xE0 SHL PUSH0 MSTORE PUSH1 0x11 PUSH1 0x4 MSTORE PUSH1 0x24 PUSH0 REVERT JUMPDEST DUP2 DUP2 SUB DUP2 DUP2 GT ISZERO PUSH2 0x93A JUMPI PUSH2 0x93A PUSH2 0x913 JUMP JUMPDEST SWAP3 SWAP2 POP POP JUMP JUMPDEST PUSH0 PUSH1 0x1 DUP3 ADD PUSH2 0x951 JUMPI PUSH2 0x951 PUSH2 0x913 JUMP JUMPDEST POP PUSH1 0x1 ADD SWAP1 JUMP JUMPDEST DUP1 DUP3 MUL DUP2 ISZERO DUP3 DUP3 DIV DUP5 EQ OR PUSH2 0x93A JUMPI PUSH2 0x93A PUSH2 0x913 JUMP JUMPDEST DUP1 DUP3 ADD DUP1 DUP3 GT ISZERO PUSH2 0x93A JUMPI PUSH2 0x93A PUSH2 0x913 JUMP JUMPDEST PUSH0 PUSH2 0x996 PUSH2 0x990 DUP4 DUP9 PUSH2 0x8CF JUMP JUMPDEST DUP7 PUSH2 0x8CF JUMP JUMPDEST SWAP4 DUP5 MSTORE POP POP PUSH1 0x20 DUP3 ADD MSTORE PUSH1 0x40 ADD SWAP3 SWAP2 POP POP JUMP INVALID LOG2 PUSH5 0x6970667358 0x22 SLT KECCAK256 0xEB 0xC4 GAS 0xFB PUSH25 0x7A888BABE120F6E793899E64E9FFEBDBEDB380FF9AD3BF2C4 KECCAK256 DUP14 PUSH5 0x736F6C6343 STOP ADDMOD SHR STOP CALLER "},"methodIdentifiers":{"DILITHIUM_MODE()":"c10b1d1a","KYBER_SECURITY_LEVEL()":"63f88c2e","clearCache(address)":"c316c57a","estimateVerificationGas(uint256)":"ccaaac44","getVerificationCount(address)":"f017c5a6","verificationCounts(address)":"25b4ca6c","verifiedSignatures(bytes32)":"e30985f9","verifyBatch(bytes[],bytes[],bytes[])":"107f91a1","verifyPQ(bytes,bytes,bytes)":"83d16440"}}}}}