{
  "_format": "hh3-artifact-1",
  "contractName": "PQVerifier",
  "sourceName": "contracts/PQVerifier.sol",
  "abi": [
    {
      "inputs": [],
      "name": "InvalidPublicKey",
      "type": "error"
    },
    {
      "inputs": [],
      "name": "InvalidSignatureLength",
      "type": "error"
    },
    {
      "inputs": [],
      "name": "SignatureVerificationFailed",
      "type": "error"
    },
    {
      "anonymous": false,
      "inputs": [
        {
          "indexed": true,
          "internalType": "address",
          "name": "validator",
          "type": "address"
        },
        {
          "indexed": true,
          "internalType": "bytes32",
          "name": "messageHash",
          "type": "bytes32"
        },
        {
          "indexed": false,
          "internalType": "bool",
          "name": "verified",
          "type": "bool"
        },
        {
          "indexed": false,
          "internalType": "uint256",
          "name": "gasUsed",
          "type": "uint256"
        }
      ],
      "name": "PQSignatureVerified",
      "type": "event"
    },
    {
      "inputs": [],
      "name": "DILITHIUM_MODE",
      "outputs": [
        {
          "internalType": "uint256",
          "name": "",
          "type": "uint256"
        }
      ],
      "stateMutability": "view",
      "type": "function"
    },
    {
      "inputs": [],
      "name": "KYBER_SECURITY_LEVEL",
      "outputs": [
        {
          "internalType": "uint256",
          "name": "",
          "type": "uint256"
        }
      ],
      "stateMutability": "view",
      "type": "function"
    },
    {
      "inputs": [
        {
          "internalType": "address",
          "name": "validator",
          "type": "address"
        }
      ],
      "name": "clearCache",
      "outputs": [],
      "stateMutability": "nonpayable",
      "type": "function"
    },
    {
      "inputs": [
        {
          "internalType": "uint256",
          "name": "signatureLength",
          "type": "uint256"
        }
      ],
      "name": "estimateVerificationGas",
      "outputs": [
        {
          "internalType": "uint256",
          "name": "estimatedGas",
          "type": "uint256"
        }
      ],
      "stateMutability": "pure",
      "type": "function"
    },
    {
      "inputs": [
        {
          "internalType": "address",
          "name": "validator",
          "type": "address"
        }
      ],
      "name": "getVerificationCount",
      "outputs": [
        {
          "internalType": "uint256",
          "name": "count",
          "type": "uint256"
        }
      ],
      "stateMutability": "view",
      "type": "function"
    },
    {
      "inputs": [
        {
          "internalType": "address",
          "name": "",
          "type": "address"
        }
      ],
      "name": "verificationCounts",
      "outputs": [
        {
          "internalType": "uint256",
          "name": "",
          "type": "uint256"
        }
      ],
      "stateMutability": "view",
      "type": "function"
    },
    {
      "inputs": [
        {
          "internalType": "bytes32",
          "name": "",
          "type": "bytes32"
        }
      ],
      "name": "verifiedSignatures",
      "outputs": [
        {
          "internalType": "bool",
          "name": "",
          "type": "bool"
        }
      ],
      "stateMutability": "view",
      "type": "function"
    },
    {
      "inputs": [
        {
          "internalType": "bytes[]",
          "name": "publicKeys",
          "type": "bytes[]"
        },
        {
          "internalType": "bytes[]",
          "name": "signatures",
          "type": "bytes[]"
        },
        {
          "internalType": "bytes[]",
          "name": "messages",
          "type": "bytes[]"
        }
      ],
      "name": "verifyBatch",
      "outputs": [
        {
          "internalType": "bool[]",
          "name": "results",
          "type": "bool[]"
        }
      ],
      "stateMutability": "nonpayable",
      "type": "function"
    },
    {
      "inputs": [
        {
          "internalType": "bytes",
          "name": "publicKey",
          "type": "bytes"
        },
        {
          "internalType": "bytes",
          "name": "signature",
          "type": "bytes"
        },
        {
          "internalType": "bytes",
          "name": "message",
          "type": "bytes"
        }
      ],
      "name": "verifyPQ",
      "outputs": [
        {
          "internalType": "bool",
          "name": "verified",
          "type": "bool"
        }
      ],
      "stateMutability": "nonpayable",
      "type": "function"
    }
  ],
  "bytecode": "0x6080604052348015600e575f5ffd5b506109df8061001c5f395ff3fe608060405234801561000f575f5ffd5b5060043610610090575f3560e01c8063c10b1d1a11610063578063c10b1d1a146100ea578063c316c57a14610115578063ccaaac441461013e578063e30985f914610151578063f017c5a614610173575f5ffd5b8063107f91a11461009457806325b4ca6c146100bd57806363f88c2e146100ea57806383d16440146100f2575b5f5ffd5b6100a76100a2366004610728565b61019b565b6040516100b491906107b6565b60405180910390f35b6100dc6100cb3660046107fa565b60016020525f908152604090205481565b6040519081526020016100b4565b6100dc600281565b610105610100366004610820565b6102d2565b60405190151581526020016100b4565b61013c6101233660046107fa565b6001600160a01b03165f90815260016020526040812055565b005b6100dc61014c3660046108a4565b610482565b61010561015f3660046108a4565b5f6020819052908152604090205460ff1681565b6100dc6101813660046107fa565b6001600160a01b03165f9081526001602052604090205490565b6060825184511480156101af575081518351145b6101f85760405162461bcd60e51b8152602060048201526015602482015274082e4e4c2f240d8cadccee8d040dad2e6dac2e8c6d605b1b60448201526064015b60405180910390fd5b835167ffffffffffffffff811115610212576102126105d3565b60405190808252806020026020018201604052801561023b578160200160208202803683370190505b5090505f5b84518110156102c95761029f85828151811061025e5761025e6108bb565b6020026020010151858381518110610278576102786108bb565b6020026020010151858481518110610292576102926108bb565b60200260200101516102d2565b8282815181106102b1576102b16108bb565b91151560209283029190910190910152600101610240565b505b9392505050565b5f5f5a905084515f036102f85760405163145a1fdd60e31b815260040160405180910390fd5b6107d08451101561031c57604051634be6321b60e01b815260040160405180910390fd5b5f8360405160200161032e91906108e6565b6040516020818303038152906040528051906020012090505f86868360405160200161035c939291906108f1565b60408051601f1981840301815291815281516020928301205f8181529283905291205490915060ff16156103e05781337f1fca4fd46ec71dcffa85709448c566f26b9352dd1d8dc004e35cb66c48a5342f60015a6103ba9088610927565b60408051921515835260208301919091520160405180910390a3600193505050506102cb565b6103eb8787846104b5565b93508315610429575f81815260208181526040808320805460ff19166001908117909155338452909152812080549161042383610940565b91905055505b5f5a6104359085610927565b60408051871515815260208101839052919250849133917f1fca4fd46ec71dcffa85709448c566f26b9352dd1d8dc004e35cb66c48a5342f910160405180910390a3505050509392505050565b5f6152088161049284600a610958565b905061c350806104a2838561096f565b6104ac919061096f565b95945050505050565b81515f906107d08110156105015760405162461bcd60e51b815260206004820152601360248201527214da59db985d1d5c99481d1bdbc81cda1bdc9d606a1b60448201526064016101ef565b845161052081101561054c5760405162461bcd60e51b8152602060048201526014602482015273141d589b1a58c81ad95e481d1bdbc81cda1bdc9d60621b60448201526064016101ef565b5f868686604051602001610562939291906108f1565b60405160208183030381529060405280519060200120905061058687878784610591565b979650505050505050565b5f5f85858563123456786040516020016105ae9493929190610982565b60408051601f1981840301815291905280516020909101208314915050949350505050565b634e487b7160e01b5f52604160045260245ffd5b604051601f8201601f1916810167ffffffffffffffff81118282101715610610576106106105d3565b604052919050565b5f82601f830112610627575f5ffd5b813567ffffffffffffffff811115610641576106416105d3565b610654601f8201601f19166020016105e7565b818152846020838601011115610668575f5ffd5b816020850160208301375f918101602001919091529392505050565b5f82601f830112610693575f5ffd5b813567ffffffffffffffff8111156106ad576106ad6105d3565b8060051b6106bd602082016105e7565b918252602081850181019290810190868411156106d8575f5ffd5b6020860192505b8383101561071e57823567ffffffffffffffff8111156106fd575f5ffd5b61070c886020838a0101610618565b835250602092830192909101906106df565b9695505050505050565b5f5f5f6060848603121561073a575f5ffd5b833567ffffffffffffffff811115610750575f5ffd5b61075c86828701610684565b935050602084013567ffffffffffffffff811115610778575f5ffd5b61078486828701610684565b925050604084013567ffffffffffffffff8111156107a0575f5ffd5b6107ac86828701610684565b9150509250925092565b602080825282518282018190525f918401906040840190835b818110156107ef57835115158352602093840193909201916001016107cf565b509095945050505050565b5f6020828403121561080a575f5ffd5b81356001600160a01b03811681146102cb575f5ffd5b5f5f5f60608486031215610832575f5ffd5b833567ffffffffffffffff811115610848575f5ffd5b61085486828701610618565b935050602084013567ffffffffffffffff811115610870575f5ffd5b61087c86828701610618565b925050604084013567ffffffffffffffff811115610898575f5ffd5b6107ac86828701610618565b5f602082840312156108b4575f5ffd5b5035919050565b634e487b7160e01b5f52603260045260245ffd5b5f81518060208401855e5f93019283525090919050565b5f6102cb82846108cf565b5f6109056108ff83876108cf565b856108cf565b928352505060200192915050565b634e487b7160e01b5f52601160045260245ffd5b8181038181111561093a5761093a610913565b92915050565b5f6001820161095157610951610913565b5060010190565b808202811582820484141761093a5761093a610913565b8082018082111561093a5761093a610913565b5f61099661099083886108cf565b866108cf565b938452505060208201526040019291505056fea2646970667358221220ebc45afb7807a888babe120f6e793899e64e9ffebdbedb380ff9ad3bf2c4208d64736f6c634300081c0033",
  "linkReferences": {},
  "deployedLinkReferences": {},
  "immutableReferences": {},
  "inputSourceName": "project/contracts/PQVerifier.sol",
  "buildInfoId": "solc-0_8_28-12cfd29a806ea7159deb71d28074fbe4767bdc30"
}